{
  "contractName": "CredentialVerification",
  "abi": [
    {
      "anonymous": false,
      "inputs": [
        {
          "indexed": true,
          "internalType": "bytes32",
          "name": "certHash",
          "type": "bytes32"
        },
        {
          "indexed": false,
          "internalType": "string",
          "name": "studentName",
          "type": "string"
        },
        {
          "indexed": false,
          "internalType": "string",
          "name": "institutionName",
          "type": "string"
        },
        {
          "indexed": false,
          "internalType": "string",
          "name": "courseName",
          "type": "string"
        },
        {
          "indexed": false,
          "internalType": "uint256",
          "name": "issueDate",
          "type": "uint256"
        }
      ],
      "name": "CertificateIssued",
      "type": "event"
    },
    {
      "inputs": [
        {
          "internalType": "string",
          "name": "studentName",
          "type": "string"
        },
        {
          "internalType": "string",
          "name": "institutionName",
          "type": "string"
        },
        {
          "internalType": "string",
          "name": "courseName",
          "type": "string"
        },
        {
          "internalType": "uint256",
          "name": "issueDate",
          "type": "uint256"
        }
      ],
      "name": "issueCertificate",
      "outputs": [],
      "stateMutability": "nonpayable",
      "type": "function"
    },
    {
      "inputs": [
        {
          "internalType": "string",
          "name": "studentName",
          "type": "string"
        },
        {
          "internalType": "string",
          "name": "institutionName",
          "type": "string"
        },
        {
          "internalType": "string",
          "name": "courseName",
          "type": "string"
        },
        {
          "internalType": "uint256",
          "name": "issueDate",
          "type": "uint256"
        }
      ],
      "name": "verifyCertificate",
      "outputs": [
        {
          "internalType": "bool",
          "name": "isValid",
          "type": "bool"
        }
      ],
      "stateMutability": "view",
      "type": "function",
      "constant": true
    }
  ],
  "bytecode": "0x608060405234801561001057600080fd5b506107d9806100206000396000f3fe608060405234801561001057600080fd5b50600436106100365760003560e01c80631bfbd6b21461003b578063283bed3d14610057575b600080fd5b610055600480360381019061005091906103a0565b610087565b005b610071600480360381019061006c91906103a0565b610220565b60405161007e919061056c565b60405180910390f35b6000848484846040516020016100a0949392919061052a565b60405160208183030381529060405280519060200120905060008082815260200190815260200160002060040160009054906101000a900460ff161561011b576040517f08c379a0000000000000000000000000000000000000000000000000000000008152600401610112906105e1565b60405180910390fd5b6040518060a00160405280868152602001858152602001848152602001838152602001600115158152506000808381526020019081526020016000206000820151816000019080519060200190610173929190610280565b506020820151816001019080519060200190610190929190610280565b5060408201518160020190805190602001906101ad929190610280565b506060820151816003015560808201518160040160006101000a81548160ff021916908315150217905550905050807f609da1dc5a288b98d4d6e35acd31d48b7967dea867215e051fb04d53fcd686eb868686866040516102119493929190610587565b60405180910390a25050505050565b6000808585858560405160200161023a949392919061052a565b60405160208183030381529060405280519060200120905060008082815260200190815260200160002060040160009054906101000a900460ff16915050949350505050565b82805461028c906106e1565b90600052602060002090601f0160209004810192826102ae57600085556102f5565b82601f106102c757805160ff19168380011785556102f5565b828001600101855582156102f5579182015b828111156102f45782518255916020019190600101906102d9565b5b5090506103029190610306565b5090565b5b8082111561031f576000816000905550600101610307565b5090565b600061033661033184610632565b610601565b90508281526020810184848401111561034e57600080fd5b61035984828561069f565b509392505050565b600082601f83011261037257600080fd5b8135610382848260208601610323565b91505092915050565b60008135905061039a8161078c565b92915050565b600080600080608085870312156103b657600080fd5b600085013567ffffffffffffffff8111156103d057600080fd5b6103dc87828801610361565b945050602085013567ffffffffffffffff8111156103f957600080fd5b61040587828801610361565b935050604085013567ffffffffffffffff81111561042257600080fd5b61042e87828801610361565b925050606061043f8782880161038b565b91505092959194509250565b61045481610689565b82525050565b600061046582610662565b61046f818561066d565b935061047f8185602086016106ae565b6104888161077b565b840191505092915050565b600061049e82610662565b6104a8818561067e565b93506104b88185602086016106ae565b80840191505092915050565b60006104d1601a8361066d565b91507f436572746966696361746520616c7265616479206578697374730000000000006000830152602082019050919050565b61050d81610695565b82525050565b61052461051f82610695565b610713565b82525050565b60006105368287610493565b91506105428286610493565b915061054e8285610493565b915061055a8284610513565b60208201915081905095945050505050565b6000602082019050610581600083018461044b565b92915050565b600060808201905081810360008301526105a1818761045a565b905081810360208301526105b5818661045a565b905081810360408301526105c9818561045a565b90506105d86060830184610504565b95945050505050565b600060208201905081810360008301526105fa816104c4565b9050919050565b6000604051905081810181811067ffffffffffffffff821117156106285761062761074c565b5b8060405250919050565b600067ffffffffffffffff82111561064d5761064c61074c565b5b601f19601f8301169050602081019050919050565b600081519050919050565b600082825260208201905092915050565b600081905092915050565b60008115159050919050565b6000819050919050565b82818337600083830152505050565b60005b838110156106cc5780820151818401526020810190506106b1565b838111156106db576000848401525b50505050565b600060028204905060018216806106f957607f821691505b6020821081141561070d5761070c61071d565b5b50919050565b6000819050919050565b7f4e487b7100000000000000000000000000000000000000000000000000000000600052602260045260246000fd5b7f4e487b7100000000000000000000000000000000000000000000000000000000600052604160045260246000fd5b6000601f19601f8301169050919050565b61079581610695565b81146107a057600080fd5b5056fea2646970667358221220f5ad9f154e875b86bb737b1e1fdd757a60f2079520d9f73233e3480381ef655064736f6c63430008000033",
  "immutableReferences": {},
  "source": "// SPDX-License-Identifier: MIT\r\npragma solidity ^0.8.0;\r\n\r\ncontract CredentialVerification {\r\n    // Structure to store certificate details\r\n    struct Certificate {\r\n        string studentName;\r\n        string institutionName;\r\n        string courseName;\r\n        uint256 issueDate;\r\n        bool exists;\r\n    }\r\n\r\n    // Mapping of certificate hashes to Certificate details\r\n    mapping(bytes32 => Certificate) private certificates;\r\n\r\n    // Event to log new certificate issuance\r\n    event CertificateIssued(\r\n        bytes32 indexed certHash,\r\n        string studentName,\r\n        string institutionName,\r\n        string courseName,\r\n        uint256 issueDate\r\n    );\r\n\r\n    /**\r\n     * @dev Issue a certificate.\r\n     * @param studentName The name of the student.\r\n     * @param institutionName The name of the issuing institution.\r\n     * @param courseName The name of the course or program.\r\n     * @param issueDate The date the certificate was issued (timestamp).\r\n     */\r\n    function issueCertificate(\r\n        string memory studentName,\r\n        string memory institutionName,\r\n        string memory courseName,\r\n        uint256 issueDate\r\n    ) public {\r\n        // Generate a unique hash for the certificate\r\n        bytes32 certHash = keccak256(\r\n            abi.encodePacked(studentName, institutionName, courseName, issueDate)\r\n        );\r\n\r\n        // Ensure the certificate doesn't already exist\r\n        require(!certificates[certHash].exists, \"Certificate already exists\");\r\n\r\n        // Store the certificate details\r\n        certificates[certHash] = Certificate(\r\n            studentName,\r\n            institutionName,\r\n            courseName,\r\n            issueDate,\r\n            true\r\n        );\r\n\r\n        // Emit event\r\n        emit CertificateIssued(\r\n            certHash,\r\n            studentName,\r\n            institutionName,\r\n            courseName,\r\n            issueDate\r\n        );\r\n    }\r\n\r\n    /**\r\n     * @dev Verify a certificate.\r\n     * @param studentName The name of the student.\r\n     * @param institutionName The name of the issuing institution.\r\n     * @param courseName The name of the course or program.\r\n     * @param issueDate The date the certificate was issued (timestamp).\r\n     * @return isValid True if the certificate is valid.\r\n     */\r\n    function verifyCertificate(\r\n        string memory studentName,\r\n        string memory institutionName,\r\n        string memory courseName,\r\n        uint256 issueDate\r\n    ) public view returns (bool isValid) {\r\n        // Generate the hash for the certificate\r\n        bytes32 certHash = keccak256(\r\n            abi.encodePacked(studentName, institutionName, courseName, issueDate)\r\n        );\r\n\r\n        // Check if the certificate exists\r\n        return certificates[certHash].exists;\r\n    }\r\n}\r\n",
  "sourcePath": "D:\\projects\\Credential Verification System\\contracts\\CredentialVerification.sol",
  "compiler": {
    "name": "solc",
    "version": "0.8.0+commit.c7dfd78e.Emscripten.clang"
  },
  "schemaVersion": "3.4.16",
  "updatedAt": "2024-12-12T19:30:00.531Z",
  "networkType": "ethereum",
  "devdoc": {
    "kind": "dev",
    "methods": {
      "issueCertificate(string,string,string,uint256)": {
        "details": "Issue a certificate.",
        "params": {
          "courseName": "The name of the course or program.",
          "institutionName": "The name of the issuing institution.",
          "issueDate": "The date the certificate was issued (timestamp).",
          "studentName": "The name of the student."
        }
      },
      "verifyCertificate(string,string,string,uint256)": {
        "details": "Verify a certificate.",
        "params": {
          "courseName": "The name of the course or program.",
          "institutionName": "The name of the issuing institution.",
          "issueDate": "The date the certificate was issued (timestamp).",
          "studentName": "The name of the student."
        },
        "returns": {
          "isValid": "True if the certificate is valid."
        }
      }
    },
    "version": 1
  },
  "userdoc": {
    "kind": "user",
    "methods": {},
    "version": 1
  }
}